:1000000000020400000000003A0400003A0400006E
:100010003A0400003A0400003A0400003A040000E8
:100020003A0400003A0400003A0400003A040000D8
:100030003A040000C80200003A0400003A0400003C
:100040003A0400003A0400003A0400003A040000B8
:100050003A04000092030000E60300003A040000A6
:100060003A0400003A0400003A0400003A04000098
:100070003A0400007E0300003A0400003A04000045
:100080003A0400003A0400003A0400003A04000078
:100090003A0400003A0400003A0400003A04000068
:1000A0003A0400003A0400003A0400003A04000058
:1000B0003A0400003A0400003A0400003A04000048
:10040000EFD421000E7F22000E01880000000000C2
:10041000000020000000E000020032000001200087
:100420002002880014000700140107000000E0000B
:1004300003003A00E0D3270001002000020037004B
:100440000000200001002000810F70000100320038
:1004500014000700000020000000E000020032004D
:1004600000000200000000005C5E020000000000CE
:100470000040DA000000FE004440A9006025200092
:100480000000E0000300320000002000A00188000E
:100490004440A800000006008A1F78008B1F7800E7
:1004A0000000060091018800800478000000EB0045
:1004B0001A003700E284440032A0B4009905BA0063
:1004C000E284440032A0B4009906BA00E2844400F9
:1004D00032A0B4000006EB00476FDE00FD07B2005B
:1004E000636CE10003003A00EBFF07000000EB0043
:1004F0000A003700606CE10004003A00005DEB0088
:100500008B05E900FDFF3E00040037006168E10053
:10051000010032000086EB000B00070019C7BA008B
:100520001905BA000E04E00003003A000A00E000DA
:10053000E0FF3A0000000600FE07B2009E018800BE
:100540008A047800F5FF3700395DBA008B05E900B1
:100550000C003200295DBA008B05E900080032006A
:100560000C00E00003003A00E284440032A0B40032
:10057000F5FF370019DDBA008B05E900FAFF3A00F4
:100580008904E800E184440032A0B40000000600C1
:100590003600F800809FBE00829FBE00849FBE0090
:1005A000869FBE003400F80000002000A0018800F3
:1005B0000200FA008460A900504080000000E800BA
:1005C00050408800FA2B070024260700ED2B070077
:1005D000804080000000E80080408800814080006A
:1005E000703E2000808F50003C0036001028EF0045
:1005F00010C0B30009E8B7001EC8BF000040E80003
:100600001EE8B700E181200091407800B0C3B3003C
:1006100080CF5000310036001E68EF001DC8BF00BB
:100620000040E8001DE8B700D1812000914078002B
:10063000B0C3B30080CF5000280036001D68EF0023
:100640001CC8BF000040E8001CE8B7001CC8BF0081
:10065000F74F5000210036001C68EF001AC8BF0099
:100660000080FB000000E90001B52800614F780020
:100670001E407800FC4F500005003A00C04080004A
:10068000630060000000E00001003A001E4FE80037
:100690001BC8BF000040E8001BE8B7001BC8BF0034
:1006A0009E4F50000D00360010C0B3001BE8B7008D
:1006B0001AC8BF000040E8001AE8B7001AC8BF0017
:1006C000EC4F50000500360010C0B3001AE8B70028
:1006D000C04080000000E800C04088000080FA00B0
:1006E0003400F9004F03BE004F02BE004F01BE00B0
:1006F0004F00BE003600F900004006003400F8004C
:10070000881F780008002000A80188004F047800A6
:100710000000FA008660A9000080FA003400F900A9
:1007200000400600809FBE003400F800000020005A
:10073000A00188000400FA0030118000004F78000A
:100740008560A90051E38000110798009E00900089
:10075000F0072000808F500018003C001E00900021
:100760000000E800100798009E00900051E3880008
:1007700041E38000110798009E009000C0C6210050
:10078000008040001E4878001E0090000000E80035
:10079000100798009E009000F0072800008060007D
:1007A0000000E00004003D000000E90001F82F0017
:1007B000008070000000E80040E388000080FA003C
:1007C0003400F9004F00BE0000400600809FBE00CC
:1007D000821F78003400F80000002000A00188008B
:1007E0000200FA008580A90021DF8000010F780057
:1007F0001E0078000000E000180032001E0FE90023
:100800001E01780022DF880001DF8000010F7800E0
:100810001E017800E600410000BE2100008040007B
:10082000104078000080FB00201188001E0FE800B7
:100830009E007800F0072800008060000000E000C3
:1008400004003D000000E90001F82F000080700066
:100850000000E80000DF8800010037003628EF00C4
:100860000080FA003400F9004F0178004F00BE000C
:10087000004006000040DA000000FE000000050015
:1008800003F0A200889FBE008A9FBE008C1F7800E4
:10089000C7000700CE0033006450E1004F00320073
:1008A0006420E1005200320003826C0007003B002C
:1008B0000905D0000306D000820F54000C065D002D
:1008C0000200390002003200890178000306780036
:1008D0008582550004003D000003FD008103FD00FA
:1008E0008502EA008B854200840F720002003B0003
:1008F00060001000E08018006011B8000005EB00F7
:100900007A28E1000A00390006007800C75DDD00A2
:10091000F707B200878075002D00370082817100D3
:100920000A017800610560008180D1000080D30059
:100930008502E900F9FF3B00060440008784480077
:1009400002003B0060041400E0841C000988A3003E
:10095000070032008A8171008281710061016400A8
:100960008904D1000884D3008B05E8001700370004
:100970000978A30013003A000B00E00013003400D4
:100980008B05E9000804440089844C000A44740083
:100990000978A3000D003A000B00E00007003400C6
:1009A0008B05E9000804440089844C0001003A00EA
:1009B0000B0020000978A300F7FF32000001EB00D4
:1009C00002003700828171000A017800520007009E
:1009D0000CF0A70001F0A000860037006420E100C1
:1009E00002003A00838F6C00860033000801BE00CD
:1009F0000200BE007F003700889FBE008A9FBE00B5
:100A00008C1F78006A0007007100330003866C00B9
:100A10006450E1002E0032006420E1003300320017
:100A20006150E1002F0032006120E100310032000E
:100A300085855500EB07B000090020000804200060
:100A4000050037000804440089844C000A00310086
:100A50000603430087834B000001530081815B0044
:100A6000F8FF33000203BE000800A00008044400A1
:100A700089844C00F6FF3900C639DD00830173001C
:100A800001003200130020008904D1000884D30043
:100A90000998A300050032000800A7000300A00089
:100AA0008904D1000884D3008B05E8008904D100B3
:100AB0000884D3000001EB000281D2001600070079
:100AC00001F0A1000CF0A70001F0A00049003700E0
:100AD0006420E1004B0032000801BE000200BE00AD
:100AE000F7FF37006120E100460032006000B800E7
:100AF000F3FF37000000200001F82700F0FF370067
:100B00001400200089003700F4FF2F008700370011
:100B10006011B800A00037008100200061805500FE
:100B20000B003D000B00200061FE2F000100E100E2
:100B30001D00340082817100610164008904D100CC
:100B40000884D3000000E800FAFF3A00710020009A
:100B500061006400030070000200600009003200C0
:100B600061044400E0844C000988A50005003200BF
:100B70008B05E8006808E10002003A008904D10012
:100B80000884D300F20F20000258E10005003D0068
:100B9000C75DDD00F907B2008980750008007800A4
:100BA000000006000BF827008B007800000005000D
:100BB0000004BE00A70007000003BE000405BE003D
:100BC0000200BE00A3000700844F7500000006006D
:100BD0000200BE006450E100050036006420E10020
:100BE000020036000968A30001003A000800BE00B8
:100BF0000160A0004F0678004F05BE004F04BE0004
:100C000000000600F0FF2F00F1FF2700F9FF37007A
:100C1000889FBE008A9FBE008C1F7800E4FF0700FB
:100C2000EBFF330003866C006450E10024003200C7
:100C30006420E100270032006150E1002200320010
:100C40006120E100210032008B854200EB07B100FA
:100C50000134B800003AB8000804420089844A0010
:100C6000013AB8000030B8008880400009014A000D
:100C70000400330000004000818048000201490068
:100C80008B05E900C909DD00830170000100320015
:100C900013002000C814DE004814DD004709DE0000
:100CA0001200B200C808DE00088470009AFF070036
:100CB00001F0A1000CF0A70001F0A000CDFF37006B
:100CC0006120E100CFFF32000801BE000200BE003B
:100CD000F7FF37006150E100FCFF3A00C9FF370021
:100CE0006022B800060220000000D0008180D200FF
:100CF0000482D2008582D2000000A00002025200CD
:100D000083825A00030031000202420083824A00BB
:100D10000000A1000603E900F3FF3A00000006000E
:100D2000EFFF07000400BE0000000600889FBE0021
:100D30008A9FBE00841F78009DFF07004F00780047
:100D400011003300F0FF2F00838F6C0006003B0082
:100D5000040565000A00A7000800370009F0A60096
:100D60001000200008003700820F5400838F5C00C1
:100D7000030039001000200001003E0000002000A8
:100D800009F0A7000000EA004F05BE004F04BE00B6
:100D90000000E00000000600889FBE008A9FBE00A1
:100DA000008270000402710004827100260032008B
:100DB0000004BE000200BE006011B8006B092000F4
:100DC000950220000182CF000A0039000541B100E0
:100DD0000082CF00070039000541B1000982CF0031
:100DE000040039000541B1000882CF00010039003C
:100DF0000541B10005425200120032000A003B00DA
:100E000082817100610164008100D1000080D30003
:100E10008984D3000884D3008B05E8000442E800ED
:100E2000F7FF3A00070037000804440089844C00AB
:100E300000004800818048008B05E9000442E90079
:100E4000F9FF3A0034FF07004F05BE004F04BE0013
:100E500000000600C70ADE00F107B200F50FB2007D
:100E600008003200E1CF4200020032000170A00011
:100E700024000500810F7000010032000408050005
:100E800044000500810F700002003A0014000500C4
:100E90008502E9000000400081C04800FCFF3B00E3
:100EA0000170A00024000500A20020008000EB00DB
:100EB00015003700881F78008A9FBE008C9FBE00F7
:100EC000000478000205BE000406BE000401BE0056
:100ED0000A00BE00C5000700008CBE000C01BE0069
:100EE000D10007000005550081855D002A049800A7
:100EF0003B049800080078004F06BE004F05BE0076
:100F00004F04780000000600EE874700889FBE006F
:100F10008A9FBE008C9FBE008E1F7800F0B79F0096
:100F20000106780082057800000478000805780042
:100F30000A047800B84678000D00FB008C0007001A
:100F40000000E000F9FF3A00D0C2B30080CF5600A5
:100F50000300320000C0E90080CF560002003A00D2
:100F60000A05E80001003700804678000B00E00029
:100F700005003500E18F55000300320040022000DB
:100F8000808F5500060034006044B8000C00E0007B
:100F9000700032007FB09700000E78006D003700BF
:100FA0000B00E0000E003200F08F55001A003A00EE
:100FB00000C3B3009A4F100017003A001A40900087
:100FC00081C7B300814F50000300320081C5B300D8
:100FD000814F500010003A000A85E8000E003700EB
:100FE000AB00200000C3B3009A4F10000A003A0083
:100FF0001A40900081C7B300814F500004003200B6
:101000008B00200081C5B300814F500002003A00E0
:101010000A85E8000B0120000A0078000002780031
:101020000400780001C3B300B0CF1000FBFF320012
:10103000040778006044B800B4B79F000D00370083
:10104000C1CE210081405000C1EF9F006159B9001D
:101050000800BE00740007004FEA97000401FB007F
:10106000CF91DE00C8B79F00D9B79F0002044000AF
:10107000838448008E0278003E00FB0085BF9F00FD
:10108000430007000B01780080007800C0CE2100EB
:101090004C0007008FBA97000000E000E8FF3A001C
:1010A0003FB29700850F550005003A006044B80034
:1010B0000C00E00027003200FFB297002400370048
:1010C0000482520010D1210060C07D000000FB00AE
:1010D000000252001700330011003A004FE9970058
:1010E0000200FB00CF80DE000000540081805C0025
:1010F000800F5400818F5C00090039006159B900EC
:1011000085BF9F00F6FE07008FBA97004FB197008A
:10111000DFB19700820F5000838F58000500320026
:101120002002200050EA88000084EB008084EB005D
:1011300005003700D0C2B30080CF560002003A004D
:1011400060041400E0841C000C00E0000100320088
:10115000050E78000800BE004F0778004F06BE005D
:101160004F05BE004F04BE00EF00B10000000600B6
:101170006900E100040035006D00E1000300340067
:101180000002B1000100320000000500100005005F
:10119000800078001104B100030035009101B10016
:1011A00001003C000050A0000000060060EA800042
:1011B0000000E0000100320000000100A0D4210086
:1011C0000000060003003700B0CF10000500320019
:1011D0000201E900800178000200E000FAFF3A0015
:1011E000000005000300780000000600839F6800EF
:1011F0000100E00002003D0060001000E0801800E7
:101200000300E00002003D0060011100E0811900D0
:10121000B3FE07004F00E00002003B00600010003A
:10122000E080180000000600020AB900001BB900A7
:101230000200B80081004200810043000000060067
:10124000000400002450000053520000463100000A
:10125000303300002C300000382C0000303000000B
:101260002C300000312C0000303100002A32000008
:10127000440D00000A2400005053000052460000B4
:1012800031300000332C0000303200002C300000E0
:10129000302C0000303100002C300000312A0000DA
:1012A000323700000D0A00002450000053520000A5
:1012B00046310000303300002C300000322C00009A
:1012C000303000002C300000302C000030310000A5
:1012D0002A320000360D00000A240000505300009E
:1012E0005246000031300000332C00003033000043
:1012F0002C300000302C0000303100002C30000079
:10130000312A0000323600000D0A0000245000008F
:101310005352000046310000303300002C300000F2
:10132000332C0000303000002C300000302C000046
:10133000303100002A320000370D00000AA0000002
:10134000A2000000028400000000000084B0000041
:10135000B32400005053000052460000313000001A
:10136000352C0000312A0000334600000D0A000031
:10137000245000005352000046310000303000007D
:101380002C3000002C3100003135000032300000DC
:10139000302C0000382C0000312C0000302A0000D6
:1013A000303400000D0A00002450000053520000A9
:1013B00046310000313700002C310000362A000091
:1013C000304200000D0A000024500000535200007B
:1013D00046310000323500002A320000310D000095
:1013E0000A24000050530000524600003130000033
:1013F000312C0000303200002C300000302C000076
:10140000303000002C300000312A0000323500005E
:101410000D0A0000A0A200000018000081020000D8
:1014200001010000000100000101000005010000B1
:1014300001010000000100000001000000000000A8
:10144000000100000000000012C000000165000063
:10145000B0B30000809A0000454100008E410000BA
:101460008F800000454500004549000049490000C3
:101470008E8F000090920000924F0000994F000064
:1014800055550000599900009A9B00009C9D000052
:101490009E9F0000414900004F550000A5A5000097
:1014A000A6A70000A8A90000AAAB0000ACAD0000F0
:1014B000AEAF0000B0B10000B2B30000B4B50000A0
:1014C000B6B70000B8B90000BABB0000BCBD000050
:1014D000BEBF0000C0C10000C2C30000C4C5000000
:1014E000C6C70000C8C90000CACB0000CCCD0000B0
:1014F000CECF0000D0D10000D2D30000D4D5000060
:10150000D6D70000D8D90000DADB0000DCDD00000F
:10151000DEDF0000E0E10000E2E30000E4E50000BF
:10152000E6E70000E8E90000EAEB0000ECED00006F
:10153000EEEF0000F0F10000F2F30000F4F500001F
:10154000F6F70000F8F90000FAFB0000FCFD0000CF
:10155000FEFF0000222A00002B2C00003A3B000076
:101560003C3D00003E3F00005B5D00007C7F0000D2
:1015700000EB0000FE9000004D530000444F0000BF
:10158000533500002E300000004E00004F200000B8
:101590004E4100004D4500002020000020200000AA
:1015A000464100005433000032200000202000009B
:1015B000004E00004F2000004E4100004D4500004D
:1015C00020200000202000004641000054200000A0
:1015D0002020000020200000000000000004000087
:1015E0000002000000010000800000004000000038
:1015F00020000000100000000800000004000000AF
:101600000200000000000000008000000040000018
:101610000020000000100000000800000040000052
:10162000002000000010000000080000000400007E
:10163000000200004C4F00004747000045520000E8
:101640002E43000046470000000000002564000013
:101650002E440000415400000030000030300000F3
:1016600030300000303000003030000030300000FA
:1016700030300000303000003030000030300000EA
:1016800030300000303000003030000030300000DA
:1016900030300000303000003030000030300000CA
:1016A0001F1C00001F1E00001F1E00001F1F000047
:1016B0001E1F00001E1F000025300000386C0000B7
:1016C000583A000000200000253000003258000089
:1016D00000200000253000003458000000200000E9
:1016E00025300000384C0000580000000A00FA00C5
:1016F000200798003107980042079800AE0090003C
:10170000010F7800BE009000110798000800370014
:101710001E009000904078001E007800014878007C
:101720001E0FE8001E0090000000E800100798005F
:101730004E00900000F0A7000000EA000000EA0060
:101740004F00DE0000407800CE0090008100E900EC
:10175000410798000004E000EDFF3A000080FA0025
:10176000000006000800FA00100798002107980002
:10177000320798009E009000010F780005003700A6
:101780002E009000804078001E007800014878000C
:101790001E0FE8003E00900000F0A7000000EA00E5
:1017A0000000EA004F00DE0000407800BE0090001C
:1017B0008100E900310798000004E000F0FF3A00E2
:1017C0000080FA00000006000C00FA0030079800C4
:1017D0004107980052079800BE009000010F780062
:1017E000CE009000110798000000EB002007980041
:1017F000000000005E00900000F0A7000000EA007A
:101800000000EA004F00DE0000407800DE0090009B
:101810008100E900510798000004E0001400320044
:101820001E007800104078008080FB001E009000B1
:10183000104078000080FB000080500020079800D6
:101840002E00900000F0A7000000EA000000E90070
:101850004F00DE00004078001E0FE8009E00900060
:101860008100E800110798000004E000E1FF3A0061
:101870002E0090000080FA00000006000400FA002C
:10188000000F780011079800010037001E0FE800D4
:101890001E007800104078000004E00006003200CE
:1018A0001E007800104078008000FB001E009000B1
:1018B000808F5000F5FF3A001E007800104078003D
:1018C0000000FB000080FA00000006000A00FA0099
:1018D000400798000000EB00300798004E00900091
:1018E000404090000004E000370032004E009000BD
:1018F0007011900080199000028FBE004E00900081
:1019000021032000808040004E0090001040900095
:10191000140020001E01BE00C72F07000000E000D9
:101920000300320010002000300798002600370026
:101930004E0090008040EB00414098004E00900027
:10194000A0109000101090003E011000AE81180011
:101950004E009000E008900050089000800F510069
:10196000818F5900180031004E00900030409000E7
:101970000080FB0020079800100037004E00900008
:10198000E0089000500890001E0F40005E9748004D
:101990004E00900021032000808040004E00900007
:1019A00010409000140020001E01BE00A22F07006E
:1019B0002E0090000000E900200798002E00900003
:1019C000E10F5000EDFF3E003E0090000080FA0065
:1019D000000006000800FA0010079800220798008F
:1019E000330798000000EB00000F78001E00900005
:1019F00070119000801990002E009000BE009000A1
:101A0000800F5100818F59001C0032001E00900091
:101A1000AEFF0700000F78001E0078000000E00015
:101A200016003A001E009000210320008080400034
:101A30001E00900010409000140020002E01900025
:101A4000BE019000282F07000000E00006003200D1
:101A50000080EB008080EB002007980031079800A1
:101A600010002000000F78001E0090002E01900052
:101A7000BE01900072109800031898001E007800B4
:101A80000080FA00000006000400FA001007980029
:101A90001E0090008DFF0700000F78001E007800E8
:101AA0000000E0009D003A001E0090001040780009
:101AB000E34F500090003A001E009000504090000C
:101AC000E14F50008C003A001E0090002003B0004F
:101AD000022020008000EB0022FF07001E00900083
:101AE0000023B00051C5B300014878001E009000EB
:101AF0001023B000A1CAB300014878001E00900076
:101B000021C5B300217098001E0090003003B00082
:101B100021C5B300014878001E0090004003B000CA
:101B200011C6B300014878001E0090005003B000B9
:101B300011C4B300014878001E0090006021B0007D
:101B400021C7B300014878001E0090007021B0004A
:101B500021C7B300014878001E0090008021B0002A
:101B600011C4B300014878001E0090009021B0001D
:101B700011C6B300014878001E009000A221200089
:101B8000000141001E00900080089000700090004D
:101B900000407800004978001E009000B22120002B
:101BA000000141001E00900080089000700090002D
:101BB000000078004800DE0000407800004978000E
:101BC0001E009000C2212000000141001E00900074
:101BD00080089000700090004008DE00004078000F
:101BE000004978001E009000D22120000001410031
:101BF0001E00900080089000700090004808DE00F1
:101C000000407800004978001E009000E22120008A
:101C1000000141001E009000E00090005000900084
:101C200000407800004978001E009000F22120005A
:101C3000000141001E009000E00090005000900064
:101C4000000078004800DE0000407800004978007D
:101C50001E00900002222000000141001E009000A2
:101C6000E0009000500090004008DE000040780046
:101C7000004978001E00900012222000000141005F
:101C80001E009000E0009000500090004808DE0028
:101C900000407800004978001E00900080109000FD
:101CA0007008900061004000E08048001E01900034
:101CB00070119800011998001E0090008018900083
:101CC000701090001E0190002603200002034300C4
:101CD0001E01900092429000140020000001BE00FE
:101CE0008600780005407800D32E07001E00900083
:101CF0008040EB00514098001E0090001040900082
:101D00000001EB008040EB00332F07000000E000F3
:101D10000200320010002000000F78001E00780042
:101D20000080FA00000006000600FA00000F7800AC
:101D300012079800230798001E009000AE00900044
:101D400062005000E08058001007980021079800BA
:101D50001E007800C008900030089000620150001A
:101D6000E08158001E009000AE009000800F5100EE
:101D7000818F590002003E006000B8001400370057
:101D80001E007800204090000080FB008000EB00E7
:101D90001E0190000191B90002017800AE0190008F
:101DA000009AB90084017800030141009E0190006F
:101DB0000018B80001014100820078001E0178007F
:101DC000E211900052119000000041008180490012
:101DD0000080FA00000006001000FA00500798008A
:101DE00062079800730798006E019000FE01900052
:101DF0001000200001002000800F5100818F590049
:101E0000080036005E00900030099000C009900084
:101E10006E009000FE009000800F5100818F5900ED
:101E200004003E001000200001002000008FBE00D2
:101E3000D70037000080EB008080EB00008FBE00F1
:101E40005E009000104078000080FB00E20F500020
:101E500057003200E30F50007B003200E10F5000CA
:101E6000C0003A00EE009000210798002E0090007C
:101E70000000D100AE0090000080400020079800D4
:101E80005E00900010119000A01190002E009000B4
:101E90004900DE008000EB00020040008380480023
:101EA0000001BE005E009000CAFE07000000E000D6
:101EB000B0003A00AE009000F01F200000806000EB
:101EC000DE0090002003B000614078000080FB003D
:101ED000300798002E0090000000E80020079800CE
:101EE0005E00900010119000A01190002E00900054
:101EF0004900DE008000EB000200400083804800C3
:101F00000001BE005E009000B2FE07000000E0008D
:101F10009A003A00AE009000F01F200000806000A0
:101F2000DE0090002003B000614078000080FB00DC
:101F30004800DD00BE0090000100700030079800EE
:101F40006E00900061006000004078000004E00036
:101F5000040032003E0090004400DE006101B80041
:101F6000110037003E0090006101B800F0FF200032
:101F7000010020000202780003017800800178004F
:101F80000100780003026200000061008000EB00A5
:101F9000C000DD00000020000001BE006120B8008C
:101FA0000001710081817100028FBE00780037004E
:101FB0005E00900010119000A01190006E00900043
:101FC000FE009000480ADD004800DE0000007200BC
:101FD000C808DE0002004000838048000001BE0007
:101FE0005E0090007BFE07000000E00065003A0004
:101FF0005E00900021032000808040006E00900071
:102000000000400000017800F01F20000000610087
:1020100000804000400798004E0090000000E8005B
:10202000104078000080FB00C800DD004E009000EA
:10203000104078000080FB00010070008000EB0081
:10204000008FBE00520037005E009000101190001B
:10205000A01190006E009000FE009000490ADD0083
:102060004700DE0000007200C708DE0002004000EA
:10207000838048000001BE005E00900055FE07000E
:102080000000E00041003A005E00900021032000C3
:10209000808040006E0090004201DD00F01F2000B3
:1020A0000000610000804000400798004E00900052
:1020B00063004000104078000080FB008000EB00CF
:1020C000C801DD00020020004E0090000080E80002
:1020D000104078000080FB008000EB00C000DD00B5
:1020E0000000200000017100818171004E0090000D
:1020F0000000E800104078000080FB004800DD0090
:102100008000EB0000017100818171004E009000A1
:10211000104078000080FB008000EB00000171009F
:1021200081817100F0FF2F00F1FF20000202780092
:10213000830178000001780001007800020162004C
:10214000008061008000EB00C000DD000000200086
:10215000008FBE006110B8001E1F70001E97700037
:102160000B0037001000200001002000008FBE008F
:1021700007003700000000000500370000000000E5
:1021800003003700000000000100370000000000DD
:102190001E00BE000080FA00000006001000FA00D9
:1021A000300798004207980053079800640798008A
:1021B000750798004E019000DE019000100020008D
:1021C00001002000800F5100818F59000800360067
:1021D0003E00900030099000C00990004E00900031
:1021E000DE009000800F5100818F590003003E00F7
:1021F00020002000000F7800160137003E009000FC
:10220000104078000080FB00E20F500073003200A5
:10221000E30F50009B003200E10F500003013A0031
:10222000CE009000110798001E0090000000D10021
:102230009E00900000804000100798003E00900033
:1022400010119000A01190001E0090004900DE00C7
:102250008000EB0002004000838048000001BE00C7
:102260003E009000DBFD0700000F78001E007800A4
:102270000000E000F0003A003E0090002103200042
:10228000808040001E019000F01F200000006100CF
:1022900000804000200798001E0090000000E80029
:1022A000100798004E009000610060000040780028
:1022B0000004E0000A0032002E0090001040780078
:1022C000EF4060006E009000004078000080FB004E
:1022D0004400DD000040780000C0700002003700BC
:1022E0006E00900000407800AE00900080487800BA
:1022F0003E00900011C0B300414098003E009000A5
:1023000010119000A01190001E0090004900DE0006
:102310008000EB0002004000838048000001BE0006
:102320003E009000ABFD0700000F78001E00780013
:102330000000E000C2003A003E00900021032000AF
:10234000808040001E019000F01F2000000061000E
:1023500000804000200798004E009000610060005F
:10236000004078000004E000080032006E00900099
:10237000FE0090004C09DD004400DE00000071000A
:10238000C408DE00004078000E0037002E009000E8
:10239000104078008040780000CFB30000C160009A
:1023A0006E009000FE009000C809DD004800DE00CD
:1023B00000807100C808DE00004078006F406000B7
:1023C00000407100AE009000804878003E00900010
:1023D00011C0B300414098009E0037003E009000BD
:1023E00010119000A01190004E009000DE009000AF
:1023F000480ADD004800DE0000007200C808DE0068
:1024000002004000838048000001BE003E009000B2
:1024100070FD0700000F78001E0078000000E0004B
:1024200089003A003E009000210320008080400097
:102430004E0090000000400000017800F01F2000D6
:102440000000610000804000200798006E009000AE
:10245000804078002E009000014878002E00900007
:102460000000E800EE009000C808DE00814078001F
:10247000014878003E00900011C0B3004140980030
:10248000740037003E00900010119000A0119000E1
:102490004E009000DE009000490ADD004700DE009B
:1024A00000007200C708DE00020040008380480080
:1024B0000001BE003E00900046FD0700000F7800BE
:1024C0001E0078000000E00061003A003E0090002D
:1024D00021032000808040004E0090004201DD007A
:1024E000F01F2000000061000080400020079800DD
:1024F0002E00900063004000104078000080FB0038
:102500008000EB00C801DD00020020002E009000DA
:102510000080E800104078000080FB008000EB00A5
:10252000C000DD0000002000000171008181710009
:102530002E0090000000E800104078000080FB00B2
:102540004800DD008000EB00000171008181710016
:102550002E009000104078000080FB008000EB000F
:1025600000017100818171000000200001002F0036
:1025700002027800030178008001780001007800F1
:1025800003026200000061008000EB00C000DD007B
:10259000000020000001BE006120B80000017100B1
:1025A000818171006E009000FE00900002007000BA
:1025B0008380700060079800710798006E0090009B
:1025C000804078002E009000014878002E00900096
:1025D0000000E800EE009000C808DE0081407800AE
:1025E000014878002E0090000081E8006E00900005
:1025F000FE0090004008DE000040780000497800AE
:102600002E009000630140006E009000FE009000DC
:102610004808DE0000407800004978003E00900045
:1026200011C0B300414098000A003700200020008C
:10263000000F780007003700000000000500370099
:102640000000000003003700000000000100370018
:10265000000000001E0078000080FA000000060064
:102660000C00FA00300798004207980053079800C2
:102670004E019000DE0190001000200001002000BB
:10268000800F5100818F5900080036003E009000F5
:1026900030099000C00990004E009000DE009000CC
:1026A000800F5100818F590003003E002000200060
:1026B000000F7800510037000000EB00000F780099
:1026C000420037004E019000DE0190003E00900075
:1026D000C1FD070010079800210798001E00900018
:1026E000AE009000E00F5000E08F58004000320034
:1026F0001E019000AE01900010002000010020009B
:10270000800F5100818F590003003A002000200003
:10271000000F7800390037001E019000AE019000D4
:102720000080EB008080EB00800F5100818F59000A
:1027300003003A0010002000000F78002F0037003F
:102740006022B8004E019000DE0190003E00900033
:1027500092FE0700000F78001E0078000000E000E5
:1027600025003A003E009000700190008009900022
:102770000080EB008080EB00800F5100818F5900BA
:102780000E0032003E009000800890007000900023
:1027900061004000E08048003E0190007001980018
:1027A000010998003E009000504090008040780061
:1027B0000104A0003E009000514098001E019000CE
:1027C000AE01900042079800530798003E00900029
:1027D00030099000C00990004E009000DE0090008B
:1027E000800F5100818F5900B6FF3E000300370073
:1027F0000000000001003700000000001E0078000B
:102800000080FA00000006001400FA00700798002B
:10281000020F9800130F98000E0890009E08900079
:10282000E00F5000E08F580017003A007E00900043
:1028300050019000E00190002207980033079800B3
:102840002E009000BE009000E00F5000E08F580076
:10285000080032007E00900030099000C00990000E
:102860002E009000BE009000800F5100818F590013
:102870002E003E00100020000100200020079800DC
:1028800031079800290037000E0990009E0990003A
:102890007E00900050FD07005007980061079800E7
:1028A0005E019000EE019000100020000100200069
:1028B000800F5100818F590003003E00100020005E
:1028C00001002000930037005E019000EE019000AF
:1028D0000080EB008080EB00800F5100818F590059
:1028E00003003A005E009000EE009000890037007F
:1028F0007E00900030099000C00990005E009000BA
:10290000EE009000800F5100818F590003003600C7
:102910005E009000EE0090007E0037000E099000EF
:102920009E09900022079800330798002E0190001E
:10293000BE019000028FBE000100370000000000C1
:1029400012002000030020001E0F41005E97490086
:102950007E009000C008900030089000BE0F50002C
:10296000AE8F58000B003E00200020000100200028
:10297000008FBE002E009000BE0090001E01BE0021
:10298000800F5100818F5900020036006000B800AE
:10299000600037001E01BE007E0090000EFD0700A3
:1029A00050079800610798005E009000EE009000CC
:1029B000E00F5000E08F58000A003A00F4FF2F00AB
:1029C000F5FF20001E01BE007E009000F3FD070011
:1029D000400798004E0090000000E0001A0032000E
:1029E000240037005E019000EE0190000080EB00B3
:1029F0008080EB00800F5100818F5900070032006A
:102A00005E019000EE019000100020000100200007
:102A1000800F5100818F590003003A005E00900042
:102A2000EE0090003B0037002E009000BE009000AA
:102A30001E01BE00800F5100818F5900BFFF3A0078
:102A40006000B800330037000E0890009E08900028
:102A5000E00F5000E08F5800060032001E02BE005A
:102A60000E0990009E0990007E009000CBFD0700AB
:102A7000400798004E0090000000E0001B003A0064
:102A80007E0090001E01BE00520098006300980076
:102A90007E00900070019000800990000080EB00A3
:102AA0008080EB00800F5100818F590018003200A8
:102AB0007E0090008008900070009000610050003F
:102AC000E08058007E019000700198000109980094
:102AD0007E00900050409000804078000104A000EB
:102AE0007E00900051409800090037004E00900091
:102AF000E10F500003003A000080EB008080EB0003
:102B0000020037001000200001002000008FBE00EE
:102B10001E00BE000080FA00000006000E00FA0051
:102B200050079800610798005E009000EE0090004A
:102B3000210098005E00900030019000C0019000DC
:102B4000028FBE001E01BE00100020000100200008
:102B5000800F5100818F5900070032005E00900005
:102B600010007800C008900030089000BE0F5000A0
:102B7000AE8F580002003E00200020007200370097
:102B80001E00BE00E00F5000E08F58000A003A001F
:102B90005E0090001000780010407800E34F500075
:102BA00005003A005E00900010007800301190009F
:102BB000C0119000028FBE001E00BE00E00F50004A
:102BC000E08F58000F003A005E009000100078007F
:102BD000C00090006E009000808F500002003E0008
:102BE00020002000580037005E00900010007800A0
:102BF00030119000C0119000220798003307980010
:102C0000310037005E0090001000780020409000F6
:102C10000080FB004400DD004007980020003700E2
:102C20005E009000100078001E01BE006AFC0700E4
:102C3000008FBE001E01BE000080EB008080EB0014
:102C4000800F5100818F590002003A0010002000CF
:102C50003D0037001E01BE001000200001002000D2
:102C6000800F5100818F5900070036005E009000F0
:102C700010007800C008900030089000BE0F50008F
:102C8000AE8F580002003E00200020002E003700CA
:102C9000EE0090004E009000008050006007980009
:102CA000EE0090004E009000808F5000DCFF31005D
:102CB0005E009000100078001E01BE001AFC0700A4
:102CC00020079800310798005E0090001E01BE00AA
:102CD00052009800630098002E009000BE00900003
:102CE000E00F5000E08F580002003A002000200062
:102CF000150037006E0090004400DE006101B8004E
:102D00002E009000BE00900002004000838048002A
:102D10005E01900070019800010998005E0090002B
:102D20001000780021032000808040006E00900099
:102D30006F0060004500DD00808040005E00900074
:102D4000110898000000EB000080FA000000060067
:102D50000C00FA00881F780040079800510798007F
:102D60004E009000200090000000E800300798001E
:102D70003E0090000000E000060032004E0090008F
:102D80008008900070009000E00F5000E08F580025
:102D900002003A0040002000C20037003E009000D0
:102DA0006F0060000000E000B0003A004E009000AC
:102DB000800890007000900061004000E0804800B2
:102DC0004E01900070019800010998004E0090009B
:102DD000E000900050009000E00F5000E08F58009D
:102DE00008003A004E00900010007800C0009000EB
:102DF0003E009000808F50009C003E00400020006C
:102E0000A80037003E009000C400DE004E00900095
:102E100010007800204090000080FB000000E900D6
:102E2000008060000000E00090003A004E0090003A
:102E3000E0009000500090004E01900012027800D7
:102E40000001BE0004007800E3FB0700008FBE0015
:102E50001E01BE001000200001002000800F510064
:102E6000818F590002003E00200020008D003700B5
:102E70001E01BE000080EB008080EB00800F51003F
:102E8000818F590002003A001000200085003700B1
:102E90004E00900010007800C008900030089000AC
:102EA000BE0F5000AE8F580065003E005E009000DF
:102EB0000000E00002003A004000200079003700E6
:102EC0004E009000E0009000500090004E019000F5
:102ED000120278000001BE00040078004AFE0700DC
:102EE000008FBE001E00BE00E00F5000E08F5800B3
:102EF00002003A00700020006A0037001E01BE0088
:102F00001000200001002000800F5100818F590027
:102F100002003A0020002000620037001E01BE00BF
:102F20000080EB008080EB00800F5100818F590002
:102F300002003A00100020005A0037004E009000B6
:102F40001000780061FA07000000E0000200320083
:102F500010002000530037004E0090001000780051
:102F60002003B000022020008000EB00FDF90700E4
:102F70004E009000100478004E0090001000780081
:102F80001E01BE0068FB070070149800011C980029
:102F90000000EB0020079800160037004E0090005C
:102FA0001000780011C0B300414098004E0090001E
:102FB0001000780045FA07000000E000020032002F
:102FC00010002000370037004E00900010017800FC
:102FD000721090008218900061004000E08048006C
:102FE00070119800011998002E0090000000E80070
:102FF000200798004E0090001000780020409000BC
:103000008080FB002E009000808F5000E3FF3E0088
:103010004E009000100278004E00900010007800E2
:1030200070119000801990002E0090008000EB003D
:10303000000051008180590070129800011A980018
:103040004E0090001E01BE005200980063009800E0
:103050004E009000100078001E01BE0032FB0700F9
:103060004E01900070019800010998004E009000F8
:10307000BE019000230098004E00900010007800E0
:1030800021032000808040003E0090006F0060001F
:103090004500DD00808040004E009000110898003F
:1030A0000000EB004F0478000080FA0000000600EA
:1030B0000800FA0020079800310798008000EB0014
:1030C0002E00900095FE0700000F78001E0078008B
:1030D0000000E0002B003A000000EB001007980011
:1030E0002E00900080089000700090002E0190004B
:1030F000120278000001BE000400780035FA0700D3
:10310000000F78001E0078000000E0001C003A006C
:103110002E0090001008900010407800FB4F4000F7
:10312000050032002E00900010089000104078003A
:103130000004E00008003A001E0090000000E800D3
:10314000100798009E0090003E009000808F500075
:1031500003003A000B0037000000EB001007980056
:10316000110020002E009000F9FE0700000F7800EB
:103170001E0078000000E000D9FF32000100370097
:10318000000000001E007800E40F500002003A002A
:1031900070002000000F78001E0078000080FA0008
:1031A000000006000800FA00200798003107980088
:1031B0003E0090007B004000104078000080FB0043
:1031C000C800DD003E0090007A004000104078000A
:1031D0000080FB00010070008000EB00008FBE004B
:1031E0002E00900010407800E34F50000F003A008E
:1031F0003E00900075004000104078000080FB0009
:10320000C800DD003E0090007400400010407800CF
:103210000080FB00010070008000EB00C000DD00BA
:10322000000020001E1F70001E9770001E00BE00D0
:103230000080FA00000006000600FA00000F780087
:1032400012079800230798009E0078007A804000BB
:103250009E00900081407800014878009E00780030
:103260007B8040009E009000C808DE00814078000E
:10327000014878009E007800748140001E00900094
:10328000AE0090004008DE00004078000049780061
:103290009E007800758140001E009000AE009000F6
:1032A0004008DE00000078004800DE0000407800A2
:1032B000004978000080FA00000006000800FA00CB
:1032C000300798008000EB003E00900013FE0700DE
:1032D000000F78001E0078000000E00002003200BD
:1032E0001E007800330037003E00900080089000F8
:1032F000700090003E019000120278000001BE00B4
:1033000004007800B3F90700000F78001E00780071
:103310000000E00023003A003E009000900890007A
:10332000110798001E0090009040780041479800D7
:103330004E4090000004E00003003A0040002000EE
:10334000000F78001A0037001E0090006B0040004C
:10335000104078000080FB00680060000000E00082
:1033600008003A003E00900020089000B2002000C3
:10337000800078001E00900013F907000000E000B4
:103380000A0032008000EB003E00900070FE070053
:10339000000F78001E0078000000E000D2FF32002D
:1033A00003003700000000000100370000000000AB
:1033B0001E0078000080FA00000006000A00FA00F3
:1033C000300798004107980040002000000F780067
:1033D000360037003E00900080089000700090009A
:1033E0003E019000120278000001BE000400780047
:1033F00078F90700000F78001E0078000000E00058
:1034000031003A003E0090009008900011079800AB
:103410001E00900090407800414798004E40900078
:103420000004E00003003A0040002000000F780094
:103430002A0037001E0090006B004000104078000A
:10344000F043B200504798004E409000FB4F4000C0
:103450000F0032005E409000EF4F50000C00320031
:103460005E4090008080FB00F0FD2F000080600037
:103470000030A20000F0A7000000EA000000E90010
:103480004F00DE00CE009000810F5000100032008F
:103490008000EB003E0090002DFE0700000F78003A
:1034A0001E0078000000E0000B003A003E00900093
:1034B0008008900070009000E00F5000E08F5800EE
:1034C000C4FF3A0005003700000000000300370089
:1034D0000000000001003700000000001E0078001E
:1034E0000000E000040032003E0190006000B800DF
:1034F00070019800010998001E0078000080FA0011
:10350000000006000400FA001007980011002000D7
:103510001E009000E6FE0700000F78001E007800F5
:103520000000E0001B003A001E00900080089000A0
:10353000700090001E019000120278000001BE0091
:103540000400780023F90700000F78001E007800BF
:103550000000E0000F003A001E00900010089000EC
:10356000020220008000EB007EF807001E009000A1
:10357000A00890001E00900010089000B2002000EB
:103580005AF807001E0090001000780011C0B30028
:10359000414098001E0078000080FA0000000600FC
:1035A0000400FA00100798001E0090002000900010
:1035B000800078001E00900058FD0700000F780082
:1035C0001E0078000000E00019003A001E00900084
:1035D00080089000700090001E0190001202780098
:1035E0000001BE0004007800FAF80700000F780020
:1035F0001E0078000000E0000D003A001E00900060
:1036000010089000020220008000EB0055F807002F
:103610001E0090001008900051CEB30001487800C1
:103620001E0090001000780011C0B30041409800C7
:103630001E0078000080FA00000006000C00FA006E
:1036400040079800510798005E0090006900400014
:10365000100798004E0090008008900070009000C5
:10366000E00F5000E08F5800660032004E009000DE
:1036700090089000310798000000EB00000F7800E0
:103680001F0037003E0090001E00400010407800F0
:10369000404798001E0FE800CE40900000C2B300E3
:1036A00080CF5000150032004E409000E54F500092
:1036B00002003A0050CEB300404798001E00780048
:1036C000E90F500006003A001E009000E1C2B3006E
:1036D000014878001E0090000000E80010079800E4
:1036E0001E009000CE409000014878001E0090001F
:1036F0000000E800100798000100370000000000FB
:103700001E007800EA0F5000DEFF36003E009000F9
:103710006B004000904078005E00900001489800E7
:103720003E0090007F004000104078000080FB00C9
:103730008000EB00C801DD00020020003E00900088
:103740007E004000104078000080FB008000EB000D
:10375000C000DD00000020000001710081817100C7
:103760003E0090007D004000104078000080FB008B
:103770004800DD008000EB000001710081817100D4
:103780003E0090007C004000104078000080FB006C
:103790008000EB0000007100818071005E019000EC
:1037A0000089BE003E009000790040001040780083
:1037B0000080FB00C800DD003E0090007800400063
:1037C000104078000080FB00810070005E009000D7
:1037D000210098003E0090007700400010407800E3
:1037E0000080FB00C800DD003E0090007600400035
:1037F000104078000080FB00810070005E009000A7
:10380000310098001E0090008040EB0001487800D5
:103810000080FA00000006000400FA00100798007B
:103820001E00900010007800904078008180FB001E
:10383000010F78008000E8001E0090000108780069
:10384000000620009E007800808F500006003600A1
:10385000A00720009E007800808F500002003E00EC
:1038600001FE2F001E8F4000F00720009E00780010
:10387000808F50000600360001F82F001E804000A7
:10388000A1A22800614078000080FB00000F7800B2
:103890001E0078000080FA00000006001400FA0004
:1038A0006007980071079800020F9800130F9800A6
:1038B000060037006E004700D7FF07000000E00059
:1038C00002003A000000EB006A0037000E0890008A
:1038D00000F0A7000000EA000000EA004F00DE0050
:1038E000004078008E0890008100E900010F9800E8
:1038F0000004E000EFFF3A006E00900010407800F6
:103900000004E00005003A001E0890000000E000FE
:10391000020032001000200056003700EE00900038
:10392000410798007E009000500798000100370082
:10393000000000004E00900090407800F0C3B300FB
:1039400080CF5000050032004E009000904078007B
:10395000A0C2B30080CF50002E003A000000EB0060
:1039600020079800AE00900011079800CE0090004C
:1039700011417800F0C3B300004069000080FB00F3
:103980000000E9004F00DE00004078008100E80000
:10399000410798000004E000040032001E0090007F
:1039A0000000E80010079800020037001000200017
:1039B000200798004E00900090407800F0C3B300BC
:1039C00080CF5000E9FF32004E0090009040780018
:1039D000A0C2B30080CF5000E4FF3200DE009000B0
:1039E0004E009000AE0190001E019000ABFF07005A
:1039F0000000E00002003200100020001D0037002F
:103A00005E009000104078000000FB00000F78007E
:103A10000F003700680047007FFF0700300798005D
:103A20006A0047007CFF0700000F78003E0090000E
:103A30009E0F500005003A003E0090000000E0009C
:103A4000BBFF3A00100020000A0037000000000011
:103A50006E00470070FF07001E0890000000E000A5
:103A6000030032001E0078000000E000ABFF3A00C7
:103A70000000EB000080FA00000006001000FA00D1
:103A800060079800710798007E0090009000780011
:103A900041079800030037004E0090000000E80046
:103AA000400798004E00900090407800F0C2B300AC
:103AB00080CF5000F8FF32004E0090009040780018
:103AC000C0C5B30080CF5000F3FF32006E009000FD
:103AD0002009900052079800B20020000102200047
:103AE0005E0090001FF707000040EB00004F7800D9
:103AF0000000EB0030079800BE00900021079800FE
:103B00008000200010079800CE0090002E0090004A
:103B10000080400090407800E0C2B30080CF5000A9
:103B200037003A00CE0090002E0090000080400048
:103B300010407800104798002E0090000000E80028
:103B4000200798009E409000E0C2B30080CF500054
:103B50000C003A002E009000E20F500009003E00D9
:103B6000DE0090003E009000008040001E4190006A
:103B7000024878003E0090000000E80030079800FE
:103B8000E8FF37009E409000F0C2B30080CF5000A5
:103B90000A0032009E409000C0C5B30080CF5000A4
:103BA000060032009E40900000C2B30080CF50005B
:103BB0000200360060002000A7003700CE00900011
:103BC0002E009000808040007E0090000108780068
:103BD0005E009000EB0040001E41900000C2B30068
:103BE000804F510002003E0040C2B3000100370088
:103BF00000C2B300804878000000EB009600370058
:103C0000CE0090002E009000008040001040780010
:103C1000104798002E0090000000E8002007980050
:103C20009E40900000C2B30080CF50005700360085
:103C30009E409000F0C2B30080CF5000530032008D
:103C40009E409000C0C5B30080CF50004F003200AE
:103C50009E409000E0C2B30080CF500004003200CC
:103C6000BE0090001E009000808F500013003900AD
:103C70001E009000E80F500004003A009E409000A3
:103C8000E0C2B30080CF500002003200600020008C
:103C9000710037008000200030079800B00020003D
:103CA000100798009E407800200020000008DD00EA
:103CB000004F780000000000D1FF37001E40900048
:103CC0000004E00008003D009E40780063CF7000D3
:103CD0001E4090000080FB000008B100A1A2280057
:103CE00061417800124798001E4090000080FB0060
:103CF00080007800A0AA2800E0F607000000E0009D
:103D00000200320060002000530037009E40900007
:103D100000C4B30080CF5000060036009E409000E3
:103D2000A0C5B30080CF500002003E001E14A000CA
:103D30000D0037009E40900000C6B30080CF5000B9
:103D4000090036009E409000A0C7B30080CF50000D
:103D500005003E001E04A0009E40900000CEB3006F
:103D600000C0400010479800DE0090003E00900028
:103D7000008040009E409000014878003E00900086
:103D80000000E800300798009DFF3700CE0090004B
:103D90002E009000808040007E0090000108780096
:103DA0009E40900000C2B30080CF500002003E0051
:103DB00040C0B300010037000040EB0010479800FE
:103DC0003E0090000000E00002003A006000200089
:103DD000210037005E00900010407800FB4F40004B
:103DE00003003A005E00900051C0B3000148780023
:103DF0001E009000E80F500004003A009E4078003A
:103E0000200020000008DD00004F78001E80FB002D
:103E100063006000E10F500003003A001E40900074
:103E20000044A000104798001E80FB006C0060005A
:103E3000E40F500003003A001E4090000034A00040
:103E4000104798005E0090006B0040001E419000FB
:103E5000024878000000EB000080FA000000060035
:103E60000A00FA0030079800410798004E009000C1
:103E700090407800F0C2B30080CF500005003200BF
:103E80004E00900090407800C0C5B30080CF500035
:103E900008003A004E0090000000E800400798003B
:103EA0003E0190006000B800300198004101980088
:103EB000070037003E00900010007800A008900036
:103EC000100890003E0190003001980041019800D8
:103ED0004E00900010407800FF4F500008003E0058
:103EE0008000EB003E0090000CFB0700000F780004
:103EF0003E0090008000EB0011089800560037004B
:103F000068004700800078003E009000DBFE07005C
:103F1000000F78001E0078000000E00047003A0023
:103F20003E009000E5FC0700000F78003E00900086
:103F3000200890006B0040009040780021479800D6
:103F40001E0078000000E000220032001E00780011
:103F5000E40F50003B003A002E4090008080FB00B0
:103F600000022000008060000000E000110032002C
:103F70003E0190006000B8003001980041019800B7
:103F80003E0090008000EB00110898002E40900049
:103F90000080FB00640060000000E00002003A00C6
:103FA00000000000D6FF37000000EB00000F780093
:103FB000290037002E4090000080FB006400600064
:103FC0000000E00021003A0050002000000F7800BF
:103FD000210037002E4090000080FB00640060004C
:103FE0000000E0001B003A003E00900090089000A6
:103FF000210798002E0090006B00400010407800D0
:104000000080FB00700060000000E00003003A0048
:1040100050002000000F78000F0037003E00900095
:1040200010007800AE0090005EFC07003E0190009A
:104030003001980041019800B1FF370000000000F6
:1040400005003700000000000300370000000000FA
:1040500001003700000000001E0078000080FA0018
:10406000000006000A00FA00400798000080EB00FC
:10407000100798004E009000100078000000E0004B
:10408000310032004E009000100F78000100370020
:104090001E0FE8001E007800104078008040780075
:1040A00000C2B30080CF5000050036001E0078002B
:1040B00090407800A0C3B30080CF5000F4FF3A00D6
:1040C0001E00780090407800A0C3B30080CF50005D
:1040D0001B003A004E0090009000780021079800E5
:1040E0002E009000104078000000FB000003B1009B
:1040F000300798002E0090000000E800200798008C
:104100003E009000E90F50000B003E002E00900092
:104110009E0F500008003A003E0090000000E000B2
:1041200005003A00BE009000110798001E0FE8003D
:104130004E0090001E0878001E009000030037001B
:104140000000EB00100798001E0090000080FA00AD
:10415000000006000600FA00000F78001207980021
:10416000230798001E0078008040EB004140980033
:104170001E0178000080EB008080EB007011980039
:10418000011998001E019000AE0190001E007800F9
:1041900010F607000000E0000200320030C0B3005B
:1041A0007A003700112320001E8040001040780064
:1041B0000080FB00C800DD00022320001E0041003B
:1041C000104078000080FB008100700050A52A009C
:1041D000808F50000200320020C0B3006B00370017
:1041E000B10620001E804000104078000080FB00D7
:1041F0008000EB00C801DD0002002000A1062000C5
:104200001E804000104078000080FB008000EB0022
:10421000C000DD00000020000001710081817100FC
:10422000910620001E804000104078000080FB00B6
:104230004800DD008000EB00000171008181710009
:10424000810620001E804000104078000080FB00A6
:104250008000EB000001710081817100F0FF2F00F0
:10426000F10F20000202780003017800800178003D
:104270000100780003026200000061008000EB0092
:10428000C000DD00000020000001BE006120B80079
:10429000000171008181710060142400410520003B
:1042A000800F5100818F590002003A000040EB005E
:1042B00036003700720820001E00410010407800D0
:1042C0000080FB008000EB00C801DD000200200040
:1042D000610820001E804000104078000080FB0034
:1042E0008000EB00C000DD00000020000001710034
:1042F00081817100510820001E804000104078002C
:104300000080FB004800DD008000EB000001710030
:1043100081817100410820001E804000104078001B
:104320000080FB008000EB000001710081817100C2
:10433000F0FF2F00F10F2000020278000301780047
:104340008001780001007800030262000000610033
:104350008000EB00C000DD00000020000001BE0076
:104360006120B80000017100818171006014240097
:1043700041052000800F5100818F590002003A0052
:104380000040EB000100370010C0B3000080FA00CD
:10439000000006003C00FA00301F9800411F980002
:1043A000227F98003E1890008000EB000108780002
:1043B0004E1890002BFF0700200F98002E08900049
:1043C0000000E00002003D00B00020003B03370089
:1043D0002E08900080004000C08220000080400035
:1043E00090007800310F98003E0890000000E00037
:1043F00002003A00C0002000300337003E18900051
:104400003E099000020878003E08900010407800B5
:104410000004E000150032003E08900010409000BB
:1044200007240700005F98000E5890000080FB00F2
:10443000610060000000E0000C003A002E7890005F
:104440000004E000070032000E5890000080FB00DE
:10445000640060000000E00002003200A0002000C4
:10446000160337000000EB00140337003E089000ED
:104470008040EB00014878002E08900080407800D2
:104480003E089000114098003E08900010409000B7
:10449000F5230700005F98000E5890000080FB0095
:1044A00061006000004078000004E000020032007B
:1044B00030002000010337002E7890000004E00057
:1044C000070032000E5890000080FB00640060007E
:1044D0000000E00002003200A0002000F7023700D8
:1044E0006000B80010079800210798001E01900096
:1044F000AE0190003E08900016FF0700004F7800C4
:104500001E407800E14F500061003A000000EB00CF
:10451000100F9800360037003E089000210320005D
:10452000808040001E0890004400DD00E01BB000C9
:1045300000804000500F98005E089000640040002A
:10454000104078000004E000200032005E08900077
:104550006B004000104078000080FB008000EB0002
:10456000C801DD00020020005E0890006A004000E3
:10457000104078000080FB008000EB00C000DD00F0
:104580000000200000017100818171005E08900030
:1045900069004000104078000080FB004800DD000A
:1045A0008000EB0000017100818171005E089000C5
:1045B00068004000104078000080FB008000EB00A5
:1045C0000000710081807100010037006000B800B8
:1045D0001E0990004211DD00020147006202B00096
:1045E0000089BE001E0890000000E800100F98002F
:1045F0001E089000E30F5000C7FF36000000EB00DC
:10460000100F98001E0890000000E0000300320028
:104610001E0890000000E900100F98001E0890008E
:104620004200DD00610220008E80400000804000DA
:104630001001BE0012079800230798001E0090008A
:10464000AE009000E00F5000E08F580005003200EF
:104650001E019000AE0190003E089000BDFE0700D4
:104660000100370020C0B300004F78001E407800E2
:104670000004E000060032001E0890000000E80080
:10468000100F98001E089000E30F5000E3FF360063
:104690001E407800E34F500002003A001000200056
:1046A000860237001E4078000004E000020032005D
:1046B000D0002000810237003E089000E003B000E7
:1046C000104078000080FB00C800DD003E0890002C
:1046D000D003B000104078000080FB008100700023
:1046E00000202000808F500002003200D000200007
:1046F000720237003E0890009004B000104078002D
:104700000080FB00C800DD003E0890008004B0007F
:10471000104078000080FB00010070008000EB007A
:1047200030079800410798003E009000CE009000AE
:10473000E00F5000E08F580021003A003E08900042
:104740009005B000104078000080FB008000EB0076
:10475000C801DD00020020003E0890008005B00086
:10476000104078000080FB008000EB00C000DD00FE
:104770000000200000017100818171003E0890005E
:104780007005B000104078000080FB004800DD009C
:104790008000EB0000017100818171003E089000F3
:1047A0006005B000104078000080FB008000EB0046
:1047B0000000710081807100300798004107980067
:1047C0003E0890003E019000CE01900052089800F3
:1047D000630898003E089000A0C090003E0890003A
:1047E000314098003E08900030409000E14F50006A
:1047F000060032003E08900030409000E24F50002A
:1048000002003200D00020002C0237003E08900049
:10481000304090000080FB008000EB004E019000D3
:104820000091B90002017800BE019000019AB90020
:104830008401780003014100BE0190000018B80017
:10484000010141008200780030079800410798007C
:1048500030079800410798003E089000F0789000DB
:104860003E089000214098003E08900020409000B3
:104870000004E0000A0032003E0890002040900052
:104880008080FB003E089000204090000080FB00EC
:104890000000E900008060000000E000020032003B
:1048A000D0002000050237003E0890004004B00010
:1048B000104078000080FB00C800DD003E0890003A
:1048C0003004B000104078000080FB0081007000D0
:1048D0003E089000410098003E0890004000900083
:1048E0006F0060000000E00002003200D0002000F5
:1048F000F20137003E0890006004B00010407800DC
:104900000080FB00C800DD003E0890005004B000AD
:10491000104078000080FB00010070008000EB0078
:1049200050079800610798005E009000EE0090002C
:10493000E00F5000E08F580021003A003E08900040
:104940005005B000104078000080FB008000EB00B4
:10495000C801DD00020020003E0890004005B000C4
:10496000104078000080FB008000EB00C000DD00FC
:104970000000200000017100818171003E0890005C
:104980003005B000104078000080FB004800DD00DA
:104990008000EB0000017100818171003E089000F1
:1049A0002005B000104078000080FB008000EB0084
:1049B0000000710081807100500798006107980025
:1049C0003E0890001004B000104078000080FB000A
:1049D000C800DD003E0890000004B00010407800E0
:1049E0000080FB0001007000600F98006E089000CE
:1049F0000000E00002003A00D0002000AF013700C4
:104A00006E0890006101B8003E009000CE0090005A
:104A100002014000838148003E0890004000900061
:104A20004400DE008000EB0002004000838048006C
:104A3000700F9800011798005E019000EE01900041
:104A40007E0890008E109000800F5100818F5900D9
:104A500002003100D0002000980137005E01900074
:104A6000EE0190007E0890008E1090000002510030
:104A7000818259003E089000204090000080FB0099
:104A80008000EB000001BE000400BE0094F00700AF
:104A900010179800211798001E109000AE1090007B
:104AA000E00F5000E08F580002003A00D0002000D4
:104AB0008201370010C0B300004F78001E11900033
:104AC000AE11900050FF200001002000800F510027
:104AD000818F59000200360020C0B300004F7800DB
:104AE0001E119000AE11900050FF2F000100200019
:104AF000800F5100818F59000200360030C0B30092
:104B0000004F78001E109000AE1090006200400030
:104B1000E08048003E099000300998004109980063
:104B20003E0890001E019000AE01900072089800AF
:104B3000031098006E0890006101B8001E009000FC
:104B4000AE00900002004000838048003E099000C3
:104B500010119800211198001E019000AE019000E4
:104B60007E0890008E109000020040008380480074
:104B70003E09900050119800611198001E40780085
:104B8000E34F500032003A003E0890004000900091
:104B90000000E00002003200D00020004701370092
:104BA0003E0890001006B000104078000080FB0026
:104BB0008000EB00C801DD00020020003E089000EC
:104BC0000006B000104078000080FB008000EB0081
:104BD000C000DD0000002000000171008181710033
:104BE0003E089000F005B000104078000080FB0007
:104BF0004800DD008000EB00000171008181710040
:104C00003E089000E005B000104078000080FB00F6
:104C10008000EB0000007100818071003E0990006F
:104C200030119800411198003E0890003009900022
:104C3000C00990004218DD00CE10DE008100700037
:104C40004210DD0070079800010F98003D0037000A
:104C50003E089000400090000000E00002003A0092
:104C6000D0002000150137003E0890001011900080
:104C7000A01190003E009000CE0090000200400085
:104C8000838048003E09900030119800411198003F
:104C90001E407800E24F500006003A003E089000A7
:104CA000C00890003008900000004000818048005B
:104CB000220037003E089000C008900030089000A5
:104CC0006309B900020178006002B900840178002C
:104CD00003014100330020000300B800010141003E
:104CE000820078008102D1000082D3003E0890004B
:104CF00030099000C0099000100020000100200041
:104D00000203780003017800800178000100780038
:104D100003036300000061008000EB00C000DD00C1
:104D2000000020000001BE006130B80000017100E9
:104D3000818171000400410085804900700798005E
:104D4000010F98003E08900050099000E009900083
:104D50007E0090008E089000F01FB0000180B0002F
:104D6000470ADD004900DE0000007200C908DE00CD
:104D7000800F5100818F590002003100D0002000C7
:104D8000CE0037003E0990000080EB008080EB00F1
:104D900070019800010998003E089000800890007A
:104DA000700090003E099000500198006101980049
:104DB0003E08900001C8B300514098001E407800A2
:104DC000E34F5000B0003A003E0890003006B000BB
:104DD000104078000080FB00C800DD003E08900015
:104DE0002006B000104078000080FB000100700039
:104DF000E10F5000A4003A001E009000AE009000A9
:104E000061004000E08048000001BE003E089000C4
:104E1000F0F207000000E0009B003A003E0890001E
:104E20008040EB00514098003E0890001023B000F5
:104E3000104078000080FB00C800DD003E089000B4
:104E40000023B000104078000080FB00810070005B
:104E500050A52A00808F50008B003A003E08900039
:104E60005003B000104078000080FB008000EB0091
:104E7000C801DD00020020003E0890004003B000A1
:104E8000104078000080FB008000EB00C000DD00D7
:104E90000000200000017100818171003E08900037
:104EA0003003B000104078000080FB004800DD00B7
:104EB0008000EB0000017100818171003E089000CC
:104EC000207090000080FB008000EB00000171006A
:104ED000818171002025250011162400800F5100CA
:104EE000818F590068003A003E0890009021B00080
:104EF000104078000080FB008000EB00C801DD005E
:104F0000020020003E0890008021B0001040780090
:104F10000080FB008000EB00C000DD0000002000EE
:104F200000017100818171003E0890007021B00085
:104F3000104078000080FB004800DD008000EB009E
:104F400000017100818171003E0890006021B00075
:104F5000104078000080FB008000EB000001710031
:104F6000818171002027270011142600800F510035
:104F7000818F590044003A003E089000D021B000D3
:104F8000104078000080FB008000EB00C801DD00CD
:104F9000020020003E089000C021B00010407800C0
:104FA0000080FB008000EB00C000DD00000020005E
:104FB00000017100818171003E089000B021B000B5
:104FC000104078000080FB004800DD008000EB000E
:104FD00000017100818171003E089000A021B000A5
:104FE000104078000080FB008000EB0000007100A2
:104FF000818071003E0990007001980001099800BD
:105000003E0890001022B000104078000080FB00A5
:105010008000EB00C801DD00020020003E08900087
:105020000022B000104078000080FB008000EB0000
:10503000C000DD00000020000001710081817100CE
:105040003E089000F021B000104078000080FB0086
:105050004800DD008000EB000001710081817100DB
:105060003E089000E021B000104078000080FB0076
:105070008000EB0000007100818071003E0990000B
:1050800050019800610198003E0890001E48780089
:10509000704180000000E80070418800714180008C
:1050A0003E089000310098003E0990006000B80072
:1050B00010099800210998000000EB000080FA0018
:1050C000000006000400FA00100798009E009000FF
:1050D000010F78001E0078000000E0001900320087
:1050E0001E007800100078000000E000150032007B
:1050F0001E00780010007800104078000004E000E6
:10510000100032001E00780010007800B0009000FF
:105110001E00780010009000808F500009003A00B7
:105120001E0078001000780010409000C420070096
:105130000080FB0061006000004078000004E00097
:105140000200320090002000010037000000EB0058
:105150000080FA00000006000E00FA0040079800E8
:1051600051079800424F98005E0090003007980069
:1051700066004700BBFB0700000F78001E007800A8
:105180000000E00002003D00B000200026003700D3
:105190001E00780080004000C08220000080400097
:1051A00090007800110798001E0090000000E000B9
:1051B000030032001E0090008040EB0001487800A0
:1051C0004E0090000000E000030032004E0090000E
:1051D0008040EB0001487800CE0090001E0078006F
:1051E00000014000C082200000004100010878005A
:1051F0004E0090000000E000030032004E48900096
:10520000E14F5000020032000000EB0006003700C2
:10521000EA004700680047000041EB005DFC070022
:10522000200798002E0090000080FA000000060081
:105230003600FA00001F9800111F9800427798006E
:105240000E1890000000E00002003A0090002000DC
:10525000340137000E1890008000EB000108780040
:105260004E7090007F40600040779800CE709000B4
:10527000E0CFB30000C16000210320008E80400019
:105280006C00470043FC0700000F78001E00780008
:105290000000E00022013A00400220000E00400021
:1052A000001798009E1890006C004700ECFA070069
:1052B000000F7800FE089000110798001E0078008B
:1052C0000000E00005003A001E0090000000E00031
:1052D00002003A0060002000000F78004E7090003D
:1052E0000080FB007C0060000000E0009B003200BA
:1052F0001E0078000000E0000C0032001E00780064
:10530000E40F500003003A006C0047007DF80700EE
:10531000000F78004E7090000034A0004077980095
:105320007E09900012079800110037001E009000BF
:105330006B004000104078000080FB0071006000AE
:105340000000E0000300320070002000000F780031
:10535000070037004E7090000080FB006400600082
:105360000000E0000200320080002000000F780002
:105370001E0078000000E00094003A004E7090009B
:105380000080FB00680060000000E0008F00320039
:105390004C18070020079800310798001E00900065
:1053A0006E004000AE009000814078000148780017
:1053B0001E0090006F004000AE009000C808DE00A4
:1053C00081407800014878001E0090007001400084
:1053D0002E009000BE0090004008DE0000407800E3
:1053E000004978001E009000710140002E009000DE
:1053F000BE0090004808DE000040780000497800B8
:105400001E00900076004000AE00900081407800C1
:10541000014878001E00900077004000AE00900028
:10542000C808DE0081407800014878001E00900026
:10543000780140002E009000BE0090004008DE0081
:1054400000407800004978001E009000790140007B
:105450002E009000BE0090004808DE00004078005A
:10546000004978001E0090006B0040008040EB0077
:10547000014878001E0090007C0040008040EB0056
:10548000014878001E0090007D0040008040EB0045
:10549000014878001E0090007E0040008040EB0034
:1054A000014878001E0090007F0040008040EB0023
:1054B000014878006E0090009E00900039F70700C8
:1054C00040079800510798006011B8001E00900036
:1054D00059F707006E00900011C0B30041409800DA
:1054E0004E009000DE009000E00F5000E08F58006A
:1054F000360032006E00900070119000801990000C
:1055000022079800330798006E0090004E0190002B
:10551000DE01900052F40700000F78001E007800B2
:105520000000E00029003A006E0190004E0090005B
:10553000DE00900061005000E080580050019800AB
:10554000610198006E0090002E019000BE01900055
:1055500020F10700000F78001C0037001E007800C3
:105560000000E00019003A001E0090006B004000AF
:10557000104078000080FB00700060000000E00038
:105580000300320040002000000F78000F003700B9
:105590004E7090000080FB00620060000000E000A0
:1055A0000A0032001E0090006B004000104078009E
:1055B0000080FB0061006000004078000004E00013
:1055C0000200320070002000000F78001E007800FA
:1055D0000000E00011003A004E7090000080FB00D7
:1055E000680060000000E000030032004E70900090
:1055F0000054A000407798006E0090008018900042
:10560000701090000E1990005009980061099800E0
:105610000E1890009E019000730898001E007800FC
:105620000000E0003E003A000E189000CE7090009E
:10563000414098000E1890008040EB0051409800C7
:105640006E0090009E009000D6F607000E199000A4
:1056500070019800010998001E0090007F00400032
:10566000104078000080FB008000EB00C801DD00E6
:10567000020020001E0090007E00400010407800D4
:105680000080FB008000EB00C000DD000000200077
:1056900000017100818171001E0090007D004000BA
:1056A000104078000080FB004800DD008000EB0027
:1056B00000017100818171001E0090007C0040009B
:1056C000104078000080FB008000EB0000007100BB
:1056D000818071000E1990005001980061019800BE
:1056E0000E1990006000B800300198004101980048
:1056F0000E1990006000B800300998004109980028
:10570000EE0090000E189000010878000E1890002E
:1057100010007800B00090000E1890001100980062
:105720001E0078000080FA00000006001E00FA004B
:10573000300F9800410F9800520F9800630F9800A7
:10574000CE089000410798006E0890008000EB00A2
:10575000010878003E0890005AFE070050079800A4
:105760005E0090000000E000020032005E00900049
:10577000330137003E089000504090000004E000E4
:10578000040032003E089000504090000080FB0072
:105790002B0137003E089000404090000080FB0045
:1057A000610060000000E00002003A00700020008C
:1057B000230137003E08900050019000E001900066
:1057C0003E089000C00090003000900000005100A2
:1057D0008180590060079800710798005E0890006A
:1057E0006101B8006E009000FE009000800F510033
:1057F000818F59000E0136006E019000520F980003
:105800000B0137003E08900030019000C00190006D
:10581000F01F200001002000020278000301780040
:10582000800178000100780003026200000061003E
:105830008000EB00C000DD00000020000001BE0081
:105840006120B8000001710081817100E00F5100FA
:10585000E08F5900B1003A003E089000C00090006F
:1058600030009000C709DD004900DE0000807100B3
:10587000C908DE00804078003E08900010007800E3
:10588000204090000040E90000C0600000579800F0
:105890000E5090000004E0002E003A003E089000F8
:1058A000C000900030009000E00F5000E08F5800E2
:1058B00005003A003E0890007001900080099000B9
:1058C000028FBE00090037003E089000A00890003B
:1058D000100890003E099000120278000001BE00FE
:1058E000040078003CF10700008FBE001E01BE00DE
:1058F0001000200001002000800F5100818F59000E
:1059000005003E003E08900021C0B30051409800C1
:1059100020002000CA0037001E01BE000080EB00FE
:105920008080EB00800F5100818F590005003A0004
:105930003E08900011C0B3005140980010002000B4
:10594000BF0037003E0890001E01BE0012089800FC
:10595000230898003E089000A008900010089000CE
:105960003E099000120278000001BE000400780099
:10597000EDF00700100F9800210F98001E0890000E
:10598000AE089000E00F5000E08F580005003A008C
:105990003E08900021C0B300514098002000200034
:1059A000A70037000E5090000080FB008000EB0045
:1059B0001E099000AE09900002004000838048005C
:1059C000100F9800210F98005E0890004900DE003B
:1059D000300798003E0090000000E0004A003200CE
:1059E0000E5090008080FB003E00900080804000C0
:1059F0003E08900010007800204090000080FB00DE
:105A0000808F5000080036003E089000100078009B
:105A1000204090008080FB000E5090000080FB0032
:105A200000805000300798003E0890001000780079
:105A3000104090003E0290001E099000AE099000B8
:105A4000CE009000281F07000000E0000500320093
:105A50003E08900011C0B300514098001000200093
:105A6000770037003E08900010007800404090001A
:105A70000004E000200032003E0890001000780092
:105A800070119000801990001E089000AE089000E0
:105A900000015100818159003E0090008000EB0020
:105AA000800F5100818F5900130031003E08900093
:105AB0001000780024032000000242003E089000FD
:105AC0001000780070119000801990001E0890005E
:105AD000AE0890000000510081805900000078005D
:105AE0004900DD00CE009000008040000220200030
:105AF00084007800FDEE07003E0090004900DD00C4
:105B000020079800320037003E0890001E099000E0
:105B1000AE09900032089800430898003E089000B3
:105B2000C00090003000900080007800F01F20003E
:105B300000806000012020000080500020079800B5
:105B4000AE0090005E089000808F5000020036008A
:105B5000DE099000230798003E089000C0089000DE
:105B6000300890003E099000120278000001BE004B
:105B70000400780097EF07000000E0000500320005
:105B80003E08900011C0B300514098001000200062
:105B90002B0037003E089000100078002203200000
:105BA000000141003E089000C000900030009000CD
:105BB00080007800F01F200000806000000041009D
:105BC0002E019000800078004E009000C7EE070084
:105BD000CE0090002E00900000804000400798000A
:105BE0003E08900030019000C00190002E0090000F
:105BF0008000EB0002004000838048003E099000D6
:105C000030019800410198006E08900090007800E3
:105C10002E009000808040006E08900001087800FF
:105C2000DE0890002E00900000805000500F980079
:105C30005E0890000000E000F2FE3A000000EB0079
:105C40000080FA00000006001A00FA00100F980009
:105C5000210F9800320F9800430F9800AE08900073
:105C6000410798004E0890008000EB000108780082
:105C70001E08900013FD0700500798005E0090007A
:105C80000000E000020032005E0090008A01370050
:105C90001E089000504090000004E0000400320014
:105CA0001E089000504090000080FB0082013700E9
:105CB0001E089000404090000080FB0062006000E1
:105CC0000000E00002003A00700020007A01370076
:105CD0001E08900030019000C00190003E08900026
:105CE0008000EB0002014000838148001E08900004
:105CF000C000900030009000800F5100818F59004B
:105D0000520131000000EB00300F98004F013700C6
:105D10001E08900030019000C0019000F01F20008C
:105D20000100200002027800030178008001780061
:105D30000100780003026200000061008000EB00B7
:105D4000C000DD00000020000001BE006120B8009E
:105D50000001710081817100E00F5100E08F590056
:105D6000F2003A001E089000C00090003000900041
:105D70004709DD004900DE0000007100C908DE00AF
:105D8000804078001E0890001000780020409000AD
:105D90000040E90000C06000404F98004E4890006D
:105DA0000004E00045003A001E089000C00090008A
:105DB00030009000E00F5000E08F58000E003A00D5
:105DC0001E0890007001900080099000028FBE00B4
:105DD0001E00BE00E00F5000E08F58000F003A0098
:105DE0001E089000100078006011B80086F20700CD
:105DF000008FBE00090037001E089000A008900028
:105E0000100890001E099000120278000001BE00E8
:105E1000040078007CF20700008FBE001E00BE0068
